{
  "contractName": "Election",
  "abi": [
    {
      "inputs": [],
      "payable": false,
      "stateMutability": "nonpayable",
      "type": "constructor"
    },
    {
      "constant": true,
      "inputs": [],
      "name": "chairperson",
      "outputs": [
        {
          "internalType": "address",
          "name": "",
          "type": "address"
        }
      ],
      "payable": false,
      "stateMutability": "view",
      "type": "function"
    },
    {
      "constant": false,
      "inputs": [
        {
          "internalType": "address",
          "name": "toVoter",
          "type": "address"
        },
        {
          "internalType": "address",
          "name": "registerer",
          "type": "address"
        }
      ],
      "name": "Register",
      "outputs": [],
      "payable": false,
      "stateMutability": "nonpayable",
      "type": "function"
    },
    {
      "constant": false,
      "inputs": [
        {
          "internalType": "uint8",
          "name": "toProposal",
          "type": "uint8"
        },
        {
          "internalType": "address",
          "name": "voterAddr",
          "type": "address"
        }
      ],
      "name": "Vote",
      "outputs": [],
      "payable": false,
      "stateMutability": "nonpayable",
      "type": "function"
    },
    {
      "constant": true,
      "inputs": [],
      "name": "Winner",
      "outputs": [
        {
          "internalType": "uint256",
          "name": "_winningProposal",
          "type": "uint256"
        }
      ],
      "payable": false,
      "stateMutability": "view",
      "type": "function"
    }
  ],
  "bytecode": "0x608060405234801561001057600080fd5b50336000806101000a81548173ffffffffffffffffffffffffffffffffffffffff021916908373ffffffffffffffffffffffffffffffffffffffff16021790555060018060008060009054906101000a900473ffffffffffffffffffffffffffffffffffffffff1673ffffffffffffffffffffffffffffffffffffffff1673ffffffffffffffffffffffffffffffffffffffff168152602001908152602001600020600001819055506000600160008060009054906101000a900473ffffffffffffffffffffffffffffffffffffffff1673ffffffffffffffffffffffffffffffffffffffff1673ffffffffffffffffffffffffffffffffffffffff16815260200190815260200160002060010160016101000a81548160ff0219169083151502179055506104a6806101446000396000f3fe608060405234801561001057600080fd5b506004361061004c5760003560e01c80632e4176cf1461005157806357ecf93b1461009b57806398ada70a146100ec578063b2b98ed214610150575b600080fd5b61005961016e565b604051808273ffffffffffffffffffffffffffffffffffffffff1673ffffffffffffffffffffffffffffffffffffffff16815260200191505060405180910390f35b6100ea600480360360408110156100b157600080fd5b81019080803560ff169060200190929190803573ffffffffffffffffffffffffffffffffffffffff169060200190929190505050610193565b005b61014e6004803603604081101561010257600080fd5b81019080803573ffffffffffffffffffffffffffffffffffffffff169060200190929190803573ffffffffffffffffffffffffffffffffffffffff1690602001909291905050506102a0565b005b6101586103f8565b6040518082815260200191505060405180910390f35b6000809054906101000a900473ffffffffffffffffffffffffffffffffffffffff1681565b61019b61044b565b600160008373ffffffffffffffffffffffffffffffffffffffff1673ffffffffffffffffffffffffffffffffffffffff168152602001908152602001600020604051806060016040529081600082015481526020016001820160009054906101000a900460ff1660ff1660ff1681526020016001820160019054906101000a900460ff161515151581525050905080604001518061023c575060048360ff16115b8061024b575060008160000151145b1561025557600080fd5b600181604001901515908115158152505082816020019060ff16908160ff1681525050806000015160028460ff166004811061028d57fe5b0160008282540192505081905550505050565b600160008373ffffffffffffffffffffffffffffffffffffffff1673ffffffffffffffffffffffffffffffffffffffff16815260200190815260200160002060010160019054906101000a900460ff168061034857506000809054906101000a900473ffffffffffffffffffffffffffffffffffffffff1673ffffffffffffffffffffffffffffffffffffffff168173ffffffffffffffffffffffffffffffffffffffff1614155b1561035257600080fd5b6000600160008473ffffffffffffffffffffffffffffffffffffffff1673ffffffffffffffffffffffffffffffffffffffff16815260200190815260200160002060010160016101000a81548160ff02191690831515021790555060018060008473ffffffffffffffffffffffffffffffffffffffff1673ffffffffffffffffffffffffffffffffffffffff168152602001908152602001600020600001819055505050565b6000806000905060008090505b600481101561044657816002826004811061041c57fe5b01541115610439576002816004811061043157fe5b015491508092505b8080600101915050610405565b505090565b604051806060016040528060008152602001600060ff168152602001600015158152509056fea265627a7a723158206cdaff8343836376b95f0693ced13bfb10e3a2a8c0884123c164e8dbd368257c64736f6c63430005100032",
  "source": "pragma solidity ^0.5.9 ;\r\n\r\ncontract Election{\r\n    struct Voter{\r\n        uint weight ;\r\n        uint8 vote ;\r\n        bool isVoted ;\r\n    }\r\n\r\n    address public chairperson ;\r\n    mapping(address => Voter) voters ;\r\n    uint[4] proposals ;\r\n\r\n    // modifier onlyOwner(){\r\n    //     require(msg.sender == chairperson);\r\n    //     _;\r\n    // }\r\n\r\n    constructor() public{\r\n        chairperson = msg.sender ;\r\n        voters[chairperson].weight = 1 ;\r\n        voters[chairperson].isVoted = false ;\r\n    }\r\n\r\n    function Register(address toVoter,address registerer) public {\r\n        if(voters[toVoter].isVoted || registerer != chairperson) revert() ;\r\n        voters[toVoter].isVoted = false ;\r\n        voters[toVoter].weight = 1 ;\r\n    }\r\n\r\n    function Vote(uint8 toProposal, address voterAddr) public{\r\n        Voter memory sender = voters[voterAddr] ;\r\n        if(sender.isVoted || toProposal>proposals.length || sender.weight == 0) revert() ;\r\n        sender.isVoted = true ;\r\n        sender.vote = toProposal ;\r\n        proposals[toProposal] += sender.weight ;\r\n    }\r\n\r\n    function Winner() public view returns(uint _winningProposal){\r\n        uint winningVoteCount = 0 ;\r\n        for(uint prop=0;prop<4;prop++){\r\n            if(proposals[prop] > winningVoteCount){\r\n                winningVoteCount = proposals[prop] ;\r\n                _winningProposal = prop ;\r\n            }\r\n        }\r\n    }\r\n}",
  "sourcePath": "D:/flutterPrograms/Flutter Blockchain/elections/contracts/Election.sol",
  "compiler": {
    "name": "solc",
    "version": "0.5.16+commit.9c3226ce.Emscripten.clang"
  },
  "schemaVersion": "3.3.3",
  "updatedAt": "2021-02-21T12:59:25.352Z",
  "networkType": "ethereum",
  "devdoc": {
    "methods": {}
  },
  "userdoc": {
    "methods": {}
  }
}