{
  "contractName": "Bidder",
  "abi": [
    {
      "inputs": [],
      "name": "bidAmount",
      "outputs": [
        {
          "internalType": "uint256",
          "name": "",
          "type": "uint256"
        }
      ],
      "stateMutability": "view",
      "type": "function",
      "constant": true
    },
    {
      "inputs": [],
      "name": "bidderName",
      "outputs": [
        {
          "internalType": "string",
          "name": "",
          "type": "string"
        }
      ],
      "stateMutability": "view",
      "type": "function",
      "constant": true
    },
    {
      "inputs": [],
      "name": "minBidAmount",
      "outputs": [
        {
          "internalType": "uint256",
          "name": "",
          "type": "uint256"
        }
      ],
      "stateMutability": "view",
      "type": "function",
      "constant": true
    },
    {
      "inputs": [
        {
          "internalType": "string",
          "name": "name",
          "type": "string"
        },
        {
          "internalType": "uint256",
          "name": "amount",
          "type": "uint256"
        }
      ],
      "name": "setBidder",
      "outputs": [],
      "stateMutability": "nonpayable",
      "type": "function"
    },
    {
      "inputs": [],
      "name": "displayEligibility",
      "outputs": [
        {
          "internalType": "bool",
          "name": "",
          "type": "bool"
        }
      ],
      "stateMutability": "view",
      "type": "function",
      "constant": true
    }
  ],
  "bytecode": "0x60806040526103e860025534801561001657600080fd5b50610617806100266000396000f3fe608060405234801561001057600080fd5b5060043610610074576000357c0100000000000000000000000000000000000000000000000000000000900480634975178814610079578063aec2393b14610097578063c920c4db146100b5578063fbf443b4146100d1578063fdcb82eb146100ef575b600080fd5b61008161010d565b60405161008e91906102a3565b60405180910390f35b61009f610113565b6040516100ac91906102a3565b60405180910390f35b6100cf60048036038101906100ca9190610444565b610119565b005b6100d961013b565b6040516100e69190610528565b60405180910390f35b6100f76101c9565b6040516101049190610565565b60405180910390f35b60025481565b60015481565b816000908051906020019061012f9291906101e7565b50806001819055505050565b60008054610148906105af565b80601f0160208091040260200160405190810160405280929190818152602001828054610174906105af565b80156101c15780601f10610196576101008083540402835291602001916101c1565b820191906000526020600020905b8154815290600101906020018083116101a457829003601f168201915b505050505081565b6000600254600154106101df57600190506101e4565b600090505b90565b8280546101f3906105af565b90600052602060002090601f016020900481019282610215576000855561025c565b82601f1061022e57805160ff191683800117855561025c565b8280016001018555821561025c579182015b8281111561025b578251825591602001919060010190610240565b5b509050610269919061026d565b5090565b5b8082111561028657600081600090555060010161026e565b5090565b6000819050919050565b61029d8161028a565b82525050565b60006020820190506102b86000830184610294565b92915050565b6000604051905090565b600080fd5b600080fd5b600080fd5b600080fd5b6000601f19601f8301169050919050565b7f4e487b7100000000000000000000000000000000000000000000000000000000600052604160045260246000fd5b610325826102dc565b810181811067ffffffffffffffff82111715610344576103436102ed565b5b80604052505050565b60006103576102be565b9050610363828261031c565b919050565b600067ffffffffffffffff821115610383576103826102ed565b5b61038c826102dc565b9050602081019050919050565b82818337600083830152505050565b60006103bb6103b684610368565b61034d565b9050828152602081018484840111156103d7576103d66102d7565b5b6103e2848285610399565b509392505050565b600082601f8301126103ff576103fe6102d2565b5b813561040f8482602086016103a8565b91505092915050565b6104218161028a565b811461042c57600080fd5b50565b60008135905061043e81610418565b92915050565b6000806040838503121561045b5761045a6102c8565b5b600083013567ffffffffffffffff811115610479576104786102cd565b5b610485858286016103ea565b92505060206104968582860161042f565b9150509250929050565b600081519050919050565b600082825260208201905092915050565b60005b838110156104da5780820151818401526020810190506104bf565b838111156104e9576000848401525b50505050565b60006104fa826104a0565b61050481856104ab565b93506105148185602086016104bc565b61051d816102dc565b840191505092915050565b6000602082019050818103600083015261054281846104ef565b905092915050565b60008115159050919050565b61055f8161054a565b82525050565b600060208201905061057a6000830184610556565b92915050565b7f4e487b7100000000000000000000000000000000000000000000000000000000600052602260045260246000fd5b600060028204905060018216806105c757607f821691505b602082108114156105db576105da610580565b5b5091905056fea2646970667358221220750f8802d7119ff86ed300502f2a856e37e2275034c682d18f4f5ddd3f4c06fe64736f6c634300080b0033",
  "immutableReferences": {},
  "source": "// SPDX-License-Identifier: MIT\r\npragma solidity >=0.4.16 <0.9.0 ;\r\n\r\ncontract Bidder{\r\n    string public bidderName;\r\n    uint public bidAmount;\r\n    uint public minBidAmount = 1000 ;\r\n\r\n    function setBidder(string memory name,uint amount) public{\r\n        bidderName = name ;\r\n        bidAmount = amount ;\r\n    }\r\n\r\n    function displayEligibility() public view returns(bool){\r\n        if(bidAmount >= minBidAmount) return true;\r\n        else return false;\r\n    }\r\n}",
  "sourcePath": "E:\\FlutterMyGitProjects\\Flutter-Blockchain\\bidder\\contracts\\Bidder.sol",
  "compiler": {
    "name": "solc",
    "version": "0.8.11+commit.d7f03943.Emscripten.clang"
  },
  "schemaVersion": "3.4.4",
  "updatedAt": "2022-02-08T13:31:56.825Z",
  "networkType": "ethereum",
  "devdoc": {
    "kind": "dev",
    "methods": {},
    "version": 1
  },
  "userdoc": {
    "kind": "user",
    "methods": {},
    "version": 1
  }
}