{
  "contractName": "Todo",
  "abi": [
    {
      "inputs": [],
      "payable": false,
      "stateMutability": "nonpayable",
      "type": "constructor"
    },
    {
      "constant": true,
      "inputs": [],
      "name": "taskCount",
      "outputs": [
        {
          "internalType": "uint256",
          "name": "",
          "type": "uint256"
        }
      ],
      "payable": false,
      "stateMutability": "view",
      "type": "function"
    },
    {
      "constant": true,
      "inputs": [
        {
          "internalType": "uint256",
          "name": "",
          "type": "uint256"
        }
      ],
      "name": "tasks",
      "outputs": [
        {
          "internalType": "uint256",
          "name": "id",
          "type": "uint256"
        },
        {
          "internalType": "string",
          "name": "heading",
          "type": "string"
        },
        {
          "internalType": "string",
          "name": "description",
          "type": "string"
        }
      ],
      "payable": false,
      "stateMutability": "view",
      "type": "function"
    },
    {
      "constant": false,
      "inputs": [
        {
          "internalType": "string",
          "name": "head",
          "type": "string"
        },
        {
          "internalType": "string",
          "name": "desc",
          "type": "string"
        }
      ],
      "name": "createTask",
      "outputs": [],
      "payable": false,
      "stateMutability": "nonpayable",
      "type": "function"
    },
    {
      "constant": false,
      "inputs": [
        {
          "internalType": "uint256",
          "name": "id",
          "type": "uint256"
        },
        {
          "internalType": "string",
          "name": "head",
          "type": "string"
        },
        {
          "internalType": "string",
          "name": "desc",
          "type": "string"
        }
      ],
      "name": "updateTask",
      "outputs": [],
      "payable": false,
      "stateMutability": "nonpayable",
      "type": "function"
    },
    {
      "constant": false,
      "inputs": [
        {
          "internalType": "uint256",
          "name": "id",
          "type": "uint256"
        }
      ],
      "name": "deleteTask",
      "outputs": [],
      "payable": false,
      "stateMutability": "nonpayable",
      "type": "function"
    }
  ],
  "bytecode": "0x608060405234801561001057600080fd5b50600080819055506108f2806100276000396000f3fe608060405234801561001057600080fd5b5060043610610074576000357c010000000000000000000000000000000000000000000000000000000090048063292a458514610079578063560f3192146101cb5780638d977672146101f9578063b6cb58a514610313578063c72ef41f14610331575b600080fd5b6101c96004803603604081101561008f57600080fd5b81019080803590602001906401000000008111156100ac57600080fd5b8201836020820111156100be57600080fd5b803590602001918460018302840111640100000000831117156100e057600080fd5b91908080601f016020809104026020016040519081016040528093929190818152602001838380828437600081840152601f19601f8201169050808301925050505050505091929192908035906020019064010000000081111561014357600080fd5b82018360208201111561015557600080fd5b8035906020019184600183028401116401000000008311171561017757600080fd5b91908080601f016020809104026020016040519081016040528093929190818152602001838380828437600081840152601f19601f82011690508083019250505050505050919291929050505061048d565b005b6101f7600480360360208110156101e157600080fd5b810190808035906020019092919050505061052f565b005b6102256004803603602081101561020f57600080fd5b8101908080359060200190929190505050610578565b604051808481526020018060200180602001838103835285818151815260200191508051906020019080838360005b8381101561026f578082015181840152602081019050610254565b50505050905090810190601f16801561029c5780820380516001836020036101000a031916815260200191505b50838103825284818151815260200191508051906020019080838360005b838110156102d55780820151818401526020810190506102ba565b50505050905090810190601f1680156103025780820380516001836020036101000a031916815260200191505b509550505050505060405180910390f35b61031b6106df565b6040518082815260200191505060405180910390f35b61048b6004803603606081101561034757600080fd5b81019080803590602001909291908035906020019064010000000081111561036e57600080fd5b82018360208201111561038057600080fd5b803590602001918460018302840111640100000000831117156103a257600080fd5b91908080601f016020809104026020016040519081016040528093929190818152602001838380828437600081840152601f19601f8201169050808301925050505050505091929192908035906020019064010000000081111561040557600080fd5b82018360208201111561041757600080fd5b8035906020019184600183028401116401000000008311171561043957600080fd5b91908080601f016020809104026020016040519081016040528093929190818152602001838380828437600081840152601f19601f8201169050808301925050505050505091929192905050506106e5565b005b60016040518060600160405280600080815480929190600101919050558152602001848152602001838152509080600181540180825580915050906001820390600052602060002090600302016000909192909190915060008201518160000155602082015181600101908051906020019061050a929190610750565b506040820151816002019080519060200190610527929190610750565b505050505050565b6001818154811061053c57fe5b906000526020600020906003020160008082016000905560018201600061056391906107d0565b60028201600061057391906107d0565b505050565b6001818154811061058557fe5b9060005260206000209060030201600091509050806000015490806001018054600181600116156101000203166002900480601f0160208091040260200160405190810160405280929190818152602001828054600181600116156101000203166002900480156106375780601f1061060c57610100808354040283529160200191610637565b820191906000526020600020905b81548152906001019060200180831161061a57829003601f168201915b505050505090806002018054600181600116156101000203166002900480601f0160208091040260200160405190810160405280929190818152602001828054600181600116156101000203166002900480156106d55780601f106106aa576101008083540402835291602001916106d5565b820191906000526020600020905b8154815290600101906020018083116106b857829003601f168201915b5050505050905083565b60005481565b81600184815481106106f357fe5b90600052602060002090600302016001019080519060200190610717929190610818565b50806001848154811061072657fe5b9060005260206000209060030201600201908051906020019061074a929190610818565b50505050565b828054600181600116156101000203166002900490600052602060002090601f016020900481019282601f1061079157805160ff19168380011785556107bf565b828001600101855582156107bf579182015b828111156107be5782518255916020019190600101906107a3565b5b5090506107cc9190610898565b5090565b50805460018160011615610100020316600290046000825580601f106107f65750610815565b601f0160209004906000526020600020908101906108149190610898565b5b50565b828054600181600116156101000203166002900490600052602060002090601f016020900481019282601f1061085957805160ff1916838001178555610887565b82800160010185558215610887579182015b8281111561088657825182559160200191906001019061086b565b5b5090506108949190610898565b5090565b6108ba91905b808211156108b657600081600090555060010161089e565b5090565b9056fea265627a7a72315820044e98ce5a0985e1d62c29174358244f7b651e0cb0ff99bd0bd8eea322f77a7f64736f6c63430005100032",
  "source": "pragma solidity ^0.5.9 ;\r\n\r\ncontract Todo{\r\n\r\n    uint public taskCount ;\r\n    struct Task{\r\n        uint id ;\r\n        string heading;\r\n        string description;\r\n    }\r\n\r\n    Task[] public tasks ;\r\n\r\n\r\n    constructor() public{\r\n        taskCount = 0 ;\r\n    }\r\n\r\n    function createTask(string memory head,string memory desc) public{\r\n        tasks.push(Task(taskCount++,head,desc)) ;\r\n    }\r\n\r\n    function updateTask(uint id,string memory head,string memory desc) public{\r\n        tasks[id].heading = head ;\r\n        tasks[id].description = desc ;\r\n    }\r\n\r\n    function deleteTask(uint id) public{\r\n        delete tasks[id];\r\n    }\r\n\r\n}",
  "sourcePath": "D:/flutterPrograms/Flutter Blockchain/todo_app/contracts/Todo.sol",
  "compiler": {
    "name": "solc",
    "version": "0.5.16+commit.9c3226ce.Emscripten.clang"
  },
  "schemaVersion": "3.3.4",
  "updatedAt": "2021-03-16T10:44:24.248Z",
  "networkType": "ethereum",
  "devdoc": {
    "methods": {}
  },
  "userdoc": {
    "methods": {}
  }
}