{
  "contractName": "Auth",
  "abi": [
    {
      "constant": false,
      "inputs": [
        {
          "internalType": "string",
          "name": "name",
          "type": "string"
        },
        {
          "internalType": "string",
          "name": "pass",
          "type": "string"
        },
        {
          "internalType": "string",
          "name": "mail",
          "type": "string"
        }
      ],
      "name": "createAccount",
      "outputs": [],
      "payable": false,
      "stateMutability": "nonpayable",
      "type": "function"
    },
    {
      "constant": true,
      "inputs": [
        {
          "internalType": "string",
          "name": "mail",
          "type": "string"
        },
        {
          "internalType": "string",
          "name": "pass",
          "type": "string"
        }
      ],
      "name": "loginAccount",
      "outputs": [
        {
          "internalType": "string",
          "name": "",
          "type": "string"
        }
      ],
      "payable": false,
      "stateMutability": "view",
      "type": "function"
    }
  ],
  "bytecode": "0x608060405234801561001057600080fd5b506109b7806100206000396000f3fe608060405234801561001057600080fd5b5060043610610053576000357c01000000000000000000000000000000000000000000000000000000009004806330c675b714610058578063bc53c0c414610223575b600080fd5b6101a86004803603604081101561006e57600080fd5b810190808035906020019064010000000081111561008b57600080fd5b82018360208201111561009d57600080fd5b803590602001918460018302840111640100000000831117156100bf57600080fd5b91908080601f016020809104026020016040519081016040528093929190818152602001838380828437600081840152601f19601f8201169050808301925050505050505091929192908035906020019064010000000081111561012257600080fd5b82018360208201111561013457600080fd5b8035906020019184600183028401116401000000008311171561015657600080fd5b91908080601f016020809104026020016040519081016040528093929190818152602001838380828437600081840152601f19601f82011690508083019250505050505050919291929050505061040c565b6040518080602001828103825283818151815260200191508051906020019080838360005b838110156101e85780820151818401526020810190506101cd565b50505050905090810190601f1680156102155780820380516001836020036101000a031916815260200191505b509250505060405180910390f35b61040a6004803603606081101561023957600080fd5b810190808035906020019064010000000081111561025657600080fd5b82018360208201111561026857600080fd5b8035906020019184600183028401116401000000008311171561028a57600080fd5b91908080601f016020809104026020016040519081016040528093929190818152602001838380828437600081840152601f19601f820116905080830192505050505050509192919290803590602001906401000000008111156102ed57600080fd5b8201836020820111156102ff57600080fd5b8035906020019184600183028401116401000000008311171561032157600080fd5b91908080601f016020809104026020016040519081016040528093929190818152602001838380828437600081840152601f19601f8201169050808301925050505050505091929192908035906020019064010000000081111561038457600080fd5b82018360208201111561039657600080fd5b803590602001918460018302840111640100000000831117156103b857600080fd5b91908080601f016020809104026020016040519081016040528093929190818152602001838380828437600081840152601f19601f820116905080830192505050505050509192919290505050610755565b005b6060816040516020018082805190602001908083835b602083106104455780518252602082019150602081019050602083039250610422565b6001836020036101000a038019825116818451168082178552505050505050905001915050604051602081830303815290604052805190602001206000846040518082805190602001908083835b602083106104b65780518252602082019150602081019050602083039250610493565b6001836020036101000a0380198251168184511680821785525050505050509050019150509081526020016040518091039020600201604051602001808280546001816001161561010002031660029004801561054a5780601f1061052857610100808354040283529182019161054a565b820191906000526020600020905b815481529060010190602001808311610536575b5050915050604051602081830303815290604052805190602001201415610716576000836040518082805190602001908083835b602083106105a1578051825260208201915060208101905060208303925061057e565b6001836020036101000a03801982511681845116808217855250505050505090500191505090815260200160405180910390206000016000846040518082805190602001908083835b6020831061060d57805182526020820191506020810190506020830392506105ea565b6001836020036101000a038019825116818451168082178552505050505050905001915050908152602001604051809103902060010160405160200180838054600181600116156101000203166002900480156106a15780601f1061067f5761010080835404028352918201916106a1565b820191906000526020600020905b81548152906001019060200180831161068d575b5050828054600181600116156101000203166002900480156106fa5780601f106106d85761010080835404028352918201916106fa565b820191906000526020600020905b8154815290600101906020018083116106e6575b505092505050604051602081830303815290604052905061074f565b6040518060400160405280600e81526020017f57726f6e672050617373776f726400000000000000000000000000000000000081525090505b92915050565b826000826040518082805190602001908083835b6020831061078c5780518252602082019150602081019050602083039250610769565b6001836020036101000a038019825116818451168082178552505050505050905001915050908152602001604051809103902060000190805190602001906107d59291906108dd565b50806000826040518082805190602001908083835b6020831061080d57805182526020820191506020810190506020830392506107ea565b6001836020036101000a038019825116818451168082178552505050505050905001915050908152602001604051809103902060010190805190602001906108569291906108dd565b50816000826040518082805190602001908083835b6020831061088e578051825260208201915060208101905060208303925061086b565b6001836020036101000a038019825116818451168082178552505050505050905001915050908152602001604051809103902060020190805190602001906108d79291906108dd565b50505050565b828054600181600116156101000203166002900490600052602060002090601f016020900481019282601f1061091e57805160ff191683800117855561094c565b8280016001018555821561094c579182015b8281111561094b578251825591602001919060010190610930565b5b509050610959919061095d565b5090565b61097f91905b8082111561097b576000816000905550600101610963565b5090565b9056fea265627a7a723158201889a799bdc6b2a559893707f987d29f660258c3e54d84a0e211c619296c055064736f6c63430005100032",
  "source": "pragma solidity ^0.5.9 ;\r\n\r\ncontract Auth{\r\n    struct Credentials{\r\n        string fullName ;\r\n        string email ;\r\n        string password;\r\n    }\r\n\r\n    mapping(string => Credentials) credential ;\r\n\r\n    function createAccount(string memory name, string memory pass, string memory mail) public{\r\n        credential[mail].fullName = name ;\r\n        credential[mail].email = mail ;\r\n        credential[mail].password = pass ;\r\n    }\r\n\r\n    function loginAccount(string memory mail,string memory pass) public view returns(string memory){\r\n        if(keccak256(abi.encodePacked(credential[mail].password)) == keccak256(abi.encodePacked(pass))){\r\n            return string(abi.encodePacked(credential[mail].fullName, credential[mail].email));\r\n        } else{\r\n            return \"Wrong Password\" ;\r\n        }\r\n\r\n    }\r\n\r\n\r\n}",
  "sourcePath": "D:/flutterPrograms/Flutter Blockchain/blockchain_auth/contracts/Auth.sol",
  "compiler": {
    "name": "solc",
    "version": "0.5.16+commit.9c3226ce.Emscripten.clang"
  },
  "schemaVersion": "3.3.4",
  "updatedAt": "2021-03-17T09:25:25.392Z",
  "networkType": "ethereum",
  "devdoc": {
    "methods": {}
  },
  "userdoc": {
    "methods": {}
  }
}