{
  "contractName": "Minter",
  "abi": [
    {
      "inputs": [],
      "stateMutability": "nonpayable",
      "type": "constructor"
    },
    {
      "anonymous": false,
      "inputs": [
        {
          "indexed": false,
          "internalType": "address",
          "name": "from",
          "type": "address"
        },
        {
          "indexed": false,
          "internalType": "address",
          "name": "to",
          "type": "address"
        },
        {
          "indexed": false,
          "internalType": "uint256",
          "name": "amount",
          "type": "uint256"
        }
      ],
      "name": "Sent",
      "type": "event"
    },
    {
      "inputs": [
        {
          "internalType": "address",
          "name": "",
          "type": "address"
        }
      ],
      "name": "balance",
      "outputs": [
        {
          "internalType": "uint256",
          "name": "",
          "type": "uint256"
        }
      ],
      "stateMutability": "view",
      "type": "function",
      "constant": true
    },
    {
      "inputs": [],
      "name": "minter",
      "outputs": [
        {
          "internalType": "address",
          "name": "",
          "type": "address"
        }
      ],
      "stateMutability": "view",
      "type": "function",
      "constant": true
    },
    {
      "inputs": [
        {
          "internalType": "address",
          "name": "receiver",
          "type": "address"
        },
        {
          "internalType": "uint256",
          "name": "amount",
          "type": "uint256"
        }
      ],
      "name": "mint",
      "outputs": [],
      "stateMutability": "nonpayable",
      "type": "function"
    },
    {
      "inputs": [
        {
          "internalType": "address",
          "name": "sender",
          "type": "address"
        },
        {
          "internalType": "address",
          "name": "receiver",
          "type": "address"
        },
        {
          "internalType": "uint256",
          "name": "amount",
          "type": "uint256"
        }
      ],
      "name": "send",
      "outputs": [],
      "stateMutability": "nonpayable",
      "type": "function"
    }
  ],
  "bytecode": "0x608060405234801561001057600080fd5b50336000806101000a81548173ffffffffffffffffffffffffffffffffffffffff021916908373ffffffffffffffffffffffffffffffffffffffff1602179055506105ee806100606000396000f3fe608060405234801561001057600080fd5b5060043610610069576000357c010000000000000000000000000000000000000000000000000000000090048063075461721461006e5780630779afe61461008c57806340c10f19146100a8578063e3d670d7146100c4575b600080fd5b6100766100f4565b604051610083919061035c565b60405180910390f35b6100a660048036038101906100a191906103de565b610118565b005b6100c260048036038101906100bd9190610431565b610250565b005b6100de60048036038101906100d99190610471565b610303565b6040516100eb91906104ad565b60405180910390f35b60008054906101000a900473ffffffffffffffffffffffffffffffffffffffff1681565b80600160008573ffffffffffffffffffffffffffffffffffffffff1673ffffffffffffffffffffffffffffffffffffffff16815260200190815260200160002054101561016457600080fd5b80600160008573ffffffffffffffffffffffffffffffffffffffff1673ffffffffffffffffffffffffffffffffffffffff16815260200190815260200160002060008282546101b391906104f7565b9250508190555080600160008473ffffffffffffffffffffffffffffffffffffffff1673ffffffffffffffffffffffffffffffffffffffff1681526020019081526020016000206000828254610209919061052b565b925050819055507f3990db2d31862302a685e8086b5755072a6e2b5b780af1ee81ece35ee3cd334583838360405161024393929190610581565b60405180910390a1505050565b60008054906101000a900473ffffffffffffffffffffffffffffffffffffffff1673ffffffffffffffffffffffffffffffffffffffff163373ffffffffffffffffffffffffffffffffffffffff16146102a8576102ff565b80600160008473ffffffffffffffffffffffffffffffffffffffff1673ffffffffffffffffffffffffffffffffffffffff16815260200190815260200160002060008282546102f7919061052b565b925050819055505b5050565b60016020528060005260406000206000915090505481565b600073ffffffffffffffffffffffffffffffffffffffff82169050919050565b60006103468261031b565b9050919050565b6103568161033b565b82525050565b6000602082019050610371600083018461034d565b92915050565b600080fd5b6103858161033b565b811461039057600080fd5b50565b6000813590506103a28161037c565b92915050565b6000819050919050565b6103bb816103a8565b81146103c657600080fd5b50565b6000813590506103d8816103b2565b92915050565b6000806000606084860312156103f7576103f6610377565b5b600061040586828701610393565b935050602061041686828701610393565b9250506040610427868287016103c9565b9150509250925092565b6000806040838503121561044857610447610377565b5b600061045685828601610393565b9250506020610467858286016103c9565b9150509250929050565b60006020828403121561048757610486610377565b5b600061049584828501610393565b91505092915050565b6104a7816103a8565b82525050565b60006020820190506104c2600083018461049e565b92915050565b7f4e487b7100000000000000000000000000000000000000000000000000000000600052601160045260246000fd5b6000610502826103a8565b915061050d836103a8565b9250828210156105205761051f6104c8565b5b828203905092915050565b6000610536826103a8565b9150610541836103a8565b9250827fffffffffffffffffffffffffffffffffffffffffffffffffffffffffffffffff03821115610576576105756104c8565b5b828201905092915050565b6000606082019050610596600083018661034d565b6105a3602083018561034d565b6105b0604083018461049e565b94935050505056fea26469706673582212202afbad9325b2b7113c09a174ee965a2406591f60222bbdc493928df01f72a71764736f6c634300080b0033",
  "immutableReferences": {},
  "source": "// SPDX-License-Identifier: MIT\r\npragma solidity >=0.4.16 <0.9.0 ;\r\n\r\ncontract Minter{\r\n    address public minter ;\r\n    mapping(address => uint) public balance ;\r\n\r\n    // Events allow light client to react on changes effectively\r\n    event Sent(address from, address to, uint amount) ;\r\n\r\n    constructor(){\r\n        minter = msg.sender ;\r\n        \r\n    }\r\n\r\n    function mint(address receiver, uint amount) public{\r\n        if(msg.sender != minter) return ;\r\n        balance[receiver] += amount ;\r\n    }\r\n\r\n    function send(address sender, address receiver, uint amount) public{\r\n        if(balance[sender] < amount) revert() ;\r\n        balance[sender] -= amount ;\r\n        balance[receiver] += amount ;\r\n        emit Sent(sender,receiver,amount) ;\r\n    }\r\n}",
  "sourcePath": "E:\\FlutterMyGitProjects\\Flutter-Blockchain\\minter\\contracts\\Minter.sol",
  "compiler": {
    "name": "solc",
    "version": "0.8.11+commit.d7f03943.Emscripten.clang"
  },
  "schemaVersion": "3.4.4",
  "updatedAt": "2022-02-09T09:49:22.579Z",
  "networkType": "ethereum",
  "devdoc": {
    "kind": "dev",
    "methods": {},
    "version": 1
  },
  "userdoc": {
    "kind": "user",
    "methods": {},
    "version": 1
  }
}