{
  "contractName": "Bidder",
  "abi": [
    {
      "constant": true,
      "inputs": [],
      "name": "bidAmount",
      "outputs": [
        {
          "internalType": "uint256",
          "name": "",
          "type": "uint256"
        }
      ],
      "payable": false,
      "stateMutability": "view",
      "type": "function"
    },
    {
      "constant": true,
      "inputs": [],
      "name": "bidderName",
      "outputs": [
        {
          "internalType": "string",
          "name": "",
          "type": "string"
        }
      ],
      "payable": false,
      "stateMutability": "view",
      "type": "function"
    },
    {
      "constant": true,
      "inputs": [],
      "name": "minBid",
      "outputs": [
        {
          "internalType": "uint256",
          "name": "",
          "type": "uint256"
        }
      ],
      "payable": false,
      "stateMutability": "view",
      "type": "function"
    },
    {
      "constant": false,
      "inputs": [
        {
          "internalType": "string",
          "name": "nm",
          "type": "string"
        },
        {
          "internalType": "uint256",
          "name": "amount",
          "type": "uint256"
        }
      ],
      "name": "setBidder",
      "outputs": [],
      "payable": false,
      "stateMutability": "nonpayable",
      "type": "function"
    },
    {
      "constant": true,
      "inputs": [],
      "name": "displayEligibility",
      "outputs": [
        {
          "internalType": "bool",
          "name": "",
          "type": "bool"
        }
      ],
      "payable": false,
      "stateMutability": "view",
      "type": "function"
    }
  ],
  "bytecode": "0x608060405261138860025534801561001657600080fd5b506103c6806100266000396000f3fe608060405234801561001057600080fd5b50600436106100575760003560e01c80633e109a191461005c578063aec2393b1461007a578063c920c4db14610098578063fbf443b41461015d578063fdcb82eb146101e0575b600080fd5b610064610202565b6040518082815260200191505060405180910390f35b610082610208565b6040518082815260200191505060405180910390f35b61015b600480360360408110156100ae57600080fd5b81019080803590602001906401000000008111156100cb57600080fd5b8201836020820111156100dd57600080fd5b803590602001918460018302840111640100000000831117156100ff57600080fd5b91908080601f016020809104026020016040519081016040528093929190818152602001838380828437600081840152601f19601f8201169050808301925050505050505091929192908035906020019092919050505061020e565b005b610165610230565b6040518080602001828103825283818151815260200191508051906020019080838360005b838110156101a557808201518184015260208101905061018a565b50505050905090810190601f1680156101d25780820380516001836020036101000a031916815260200191505b509250505060405180910390f35b6101e86102ce565b604051808215151515815260200191505060405180910390f35b60025481565b60015481565b81600090805190602001906102249291906102ec565b50806001819055505050565b60008054600181600116156101000203166002900480601f0160208091040260200160405190810160405280929190818152602001828054600181600116156101000203166002900480156102c65780601f1061029b576101008083540402835291602001916102c6565b820191906000526020600020905b8154815290600101906020018083116102a957829003601f168201915b505050505081565b6000600254600154106102e457600190506102e9565b600090505b90565b828054600181600116156101000203166002900490600052602060002090601f016020900481019282601f1061032d57805160ff191683800117855561035b565b8280016001018555821561035b579182015b8281111561035a57825182559160200191906001019061033f565b5b509050610368919061036c565b5090565b61038e91905b8082111561038a576000816000905550600101610372565b5090565b9056fea265627a7a723158204f7c0a15e14dfb6d3a6114f6dccf405f8b7449c0449a0597059c05b212956ffc64736f6c63430005100032",
  "source": "pragma solidity ^0.5.9 ;\r\n\r\ncontract Bidder{\r\n    string public bidderName ;\r\n    uint public bidAmount ;\r\n    uint public minBid = 5000;\r\n\r\n\r\n    function setBidder(string memory nm, uint amount) public{\r\n        bidderName = nm ;\r\n        bidAmount = amount ;\r\n    }\r\n\r\n    function displayEligibility() public view returns(bool){\r\n        if(bidAmount >= minBid) return true ;\r\n        else return false ;\r\n    }\r\n}",
  "sourcePath": "D:/flutterPrograms/Flutter Blockchain/bidder/contracts/Bidder.sol",
  "compiler": {
    "name": "solc",
    "version": "0.5.16+commit.9c3226ce.Emscripten.clang"
  },
  "schemaVersion": "3.3.3",
  "updatedAt": "2021-02-13T13:46:23.802Z",
  "networkType": "ethereum",
  "devdoc": {
    "methods": {}
  },
  "userdoc": {
    "methods": {}
  }
}