{
  "contractName": "Population",
  "abi": [
    {
      "inputs": [],
      "stateMutability": "nonpayable",
      "type": "constructor"
    },
    {
      "inputs": [],
      "name": "countryName",
      "outputs": [
        {
          "internalType": "string",
          "name": "",
          "type": "string"
        }
      ],
      "stateMutability": "view",
      "type": "function",
      "constant": true
    },
    {
      "inputs": [],
      "name": "currentPopulation",
      "outputs": [
        {
          "internalType": "uint256",
          "name": "",
          "type": "uint256"
        }
      ],
      "stateMutability": "view",
      "type": "function",
      "constant": true
    },
    {
      "inputs": [
        {
          "internalType": "string",
          "name": "name",
          "type": "string"
        },
        {
          "internalType": "uint256",
          "name": "populationCount",
          "type": "uint256"
        }
      ],
      "name": "set",
      "outputs": [],
      "stateMutability": "nonpayable",
      "type": "function"
    },
    {
      "inputs": [
        {
          "internalType": "uint256",
          "name": "decrementBy",
          "type": "uint256"
        }
      ],
      "name": "decrement",
      "outputs": [],
      "stateMutability": "nonpayable",
      "type": "function"
    },
    {
      "inputs": [
        {
          "internalType": "uint256",
          "name": "incrementBy",
          "type": "uint256"
        }
      ],
      "name": "increment",
      "outputs": [],
      "stateMutability": "nonpayable",
      "type": "function"
    }
  ],
  "bytecode": "0x608060405234801561001057600080fd5b506040518060400160405280600781526020017f556e6b6e6f776e000000000000000000000000000000000000000000000000008152506000908051906020019061005c92919061006a565b50600060018190555061016e565b8280546100769061013c565b90600052602060002090601f01602090048101928261009857600085556100df565b82601f106100b157805160ff19168380011785556100df565b828001600101855582156100df579182015b828111156100de5782518255916020019190600101906100c3565b5b5090506100ec91906100f0565b5090565b5b808211156101095760008160009055506001016100f1565b5090565b7f4e487b7100000000000000000000000000000000000000000000000000000000600052602260045260246000fd5b6000600282049050600182168061015457607f821691505b602082108114156101685761016761010d565b5b50919050565b6106d78061017d6000396000f3fe608060405234801561001057600080fd5b5060043610610074576000357c0100000000000000000000000000000000000000000000000000000000900480633a9ebefd146100795780633f82995714610095578063704113b3146100b35780637cf5dab0146100d15780638a42ebe9146100ed575b600080fd5b610093600480360381019061008e91906102e4565b610109565b005b61009d610125565b6040516100aa91906103aa565b60405180910390f35b6100bb6101b3565b6040516100c891906103db565b60405180910390f35b6100eb60048036038101906100e691906102e4565b6101b9565b005b6101076004803603810190610102919061052b565b6101d5565b005b806001600082825461011b91906105b6565b9250508190555050565b6000805461013290610619565b80601f016020809104026020016040519081016040528092919081815260200182805461015e90610619565b80156101ab5780601f10610180576101008083540402835291602001916101ab565b820191906000526020600020905b81548152906001019060200180831161018e57829003601f168201915b505050505081565b60015481565b80600160008282546101cb919061064b565b9250508190555050565b81600090805190602001906101eb9291906101f7565b50806001819055505050565b82805461020390610619565b90600052602060002090601f016020900481019282610225576000855561026c565b82601f1061023e57805160ff191683800117855561026c565b8280016001018555821561026c579182015b8281111561026b578251825591602001919060010190610250565b5b509050610279919061027d565b5090565b5b8082111561029657600081600090555060010161027e565b5090565b6000604051905090565b600080fd5b600080fd5b6000819050919050565b6102c1816102ae565b81146102cc57600080fd5b50565b6000813590506102de816102b8565b92915050565b6000602082840312156102fa576102f96102a4565b5b6000610308848285016102cf565b91505092915050565b600081519050919050565b600082825260208201905092915050565b60005b8381101561034b578082015181840152602081019050610330565b8381111561035a576000848401525b50505050565b6000601f19601f8301169050919050565b600061037c82610311565b610386818561031c565b935061039681856020860161032d565b61039f81610360565b840191505092915050565b600060208201905081810360008301526103c48184610371565b905092915050565b6103d5816102ae565b82525050565b60006020820190506103f060008301846103cc565b92915050565b600080fd5b600080fd5b7f4e487b7100000000000000000000000000000000000000000000000000000000600052604160045260246000fd5b61043882610360565b810181811067ffffffffffffffff8211171561045757610456610400565b5b80604052505050565b600061046a61029a565b9050610476828261042f565b919050565b600067ffffffffffffffff82111561049657610495610400565b5b61049f82610360565b9050602081019050919050565b82818337600083830152505050565b60006104ce6104c98461047b565b610460565b9050828152602081018484840111156104ea576104e96103fb565b5b6104f58482856104ac565b509392505050565b600082601f830112610512576105116103f6565b5b81356105228482602086016104bb565b91505092915050565b60008060408385031215610542576105416102a4565b5b600083013567ffffffffffffffff8111156105605761055f6102a9565b5b61056c858286016104fd565b925050602061057d858286016102cf565b9150509250929050565b7f4e487b7100000000000000000000000000000000000000000000000000000000600052601160045260246000fd5b60006105c1826102ae565b91506105cc836102ae565b9250828210156105df576105de610587565b5b828203905092915050565b7f4e487b7100000000000000000000000000000000000000000000000000000000600052602260045260246000fd5b6000600282049050600182168061063157607f821691505b60208210811415610645576106446105ea565b5b50919050565b6000610656826102ae565b9150610661836102ae565b9250827fffffffffffffffffffffffffffffffffffffffffffffffffffffffffffffffff0382111561069657610695610587565b5b82820190509291505056fea2646970667358221220b45f7c389b1494f260ade370226f6cbcdb716d6519b7b03ea38e489b43a7a2de64736f6c634300080b0033",
  "immutableReferences": {},
  "source": "// SPDX-License-Identifier: MIT\r\npragma solidity >=0.4.16 <0.9.0 ;\r\n\r\ncontract Population{\r\n    string public countryName ;\r\n    uint public currentPopulation ;\r\n\r\n    constructor(){\r\n        countryName = \"Unknown\" ;\r\n        currentPopulation = 0 ;\r\n    }\r\n\r\n    function set(string memory name, uint populationCount) public{\r\n        countryName = name ;\r\n        currentPopulation = populationCount ;\r\n    }\r\n\r\n    function decrement(uint decrementBy) public{\r\n        currentPopulation -= decrementBy ;\r\n    }\r\n\r\n    function increment(uint incrementBy) public{\r\n        currentPopulation += incrementBy ;\r\n    }\r\n}",
  "sourcePath": "E:\\FlutterMyLocalProjects\\population\\contracts\\Population.sol",
  "compiler": {
    "name": "solc",
    "version": "0.8.11+commit.d7f03943.Emscripten.clang"
  },
  "schemaVersion": "3.4.4",
  "updatedAt": "2022-02-08T06:59:06.537Z",
  "networkType": "ethereum",
  "devdoc": {
    "kind": "dev",
    "methods": {},
    "version": 1
  },
  "userdoc": {
    "kind": "user",
    "methods": {},
    "version": 1
  }
}