{
  "contractName": "HelloWorld",
  "abi": [
    {
      "inputs": [],
      "stateMutability": "nonpayable",
      "type": "constructor"
    },
    {
      "inputs": [],
      "name": "yourName",
      "outputs": [
        {
          "internalType": "string",
          "name": "",
          "type": "string"
        }
      ],
      "stateMutability": "view",
      "type": "function",
      "constant": true
    },
    {
      "inputs": [
        {
          "internalType": "string",
          "name": "name",
          "type": "string"
        }
      ],
      "name": "setName",
      "outputs": [],
      "stateMutability": "nonpayable",
      "type": "function"
    }
  ],
  "bytecode": "0x608060405234801561001057600080fd5b506040518060400160405280600781526020017f556e6b6e6f776e000000000000000000000000000000000000000000000000008152506000908051906020019061005c929190610062565b50610166565b82805461006e90610134565b90600052602060002090601f01602090048101928261009057600085556100d7565b82601f106100a957805160ff19168380011785556100d7565b828001600101855582156100d7579182015b828111156100d65782518255916020019190600101906100bb565b5b5090506100e491906100e8565b5090565b5b808211156101015760008160009055506001016100e9565b5090565b7f4e487b7100000000000000000000000000000000000000000000000000000000600052602260045260246000fd5b6000600282049050600182168061014c57607f821691505b602082108114156101605761015f610105565b5b50919050565b6104c1806101756000396000f3fe608060405234801561001057600080fd5b5060043610610053576000357c010000000000000000000000000000000000000000000000000000000090048063c47f002714610058578063d97d663014610074575b600080fd5b610072600480360381019061006d9190610337565b610092565b005b61007c6100ac565b6040516100899190610408565b60405180910390f35b80600090805190602001906100a892919061013a565b5050565b600080546100b990610459565b80601f01602080910402602001604051908101604052809291908181526020018280546100e590610459565b80156101325780601f1061010757610100808354040283529160200191610132565b820191906000526020600020905b81548152906001019060200180831161011557829003601f168201915b505050505081565b82805461014690610459565b90600052602060002090601f01602090048101928261016857600085556101af565b82601f1061018157805160ff19168380011785556101af565b828001600101855582156101af579182015b828111156101ae578251825591602001919060010190610193565b5b5090506101bc91906101c0565b5090565b5b808211156101d95760008160009055506001016101c1565b5090565b6000604051905090565b600080fd5b600080fd5b600080fd5b600080fd5b6000601f19601f8301169050919050565b7f4e487b7100000000000000000000000000000000000000000000000000000000600052604160045260246000fd5b610244826101fb565b810181811067ffffffffffffffff821117156102635761026261020c565b5b80604052505050565b60006102766101dd565b9050610282828261023b565b919050565b600067ffffffffffffffff8211156102a2576102a161020c565b5b6102ab826101fb565b9050602081019050919050565b82818337600083830152505050565b60006102da6102d584610287565b61026c565b9050828152602081018484840111156102f6576102f56101f6565b5b6103018482856102b8565b509392505050565b600082601f83011261031e5761031d6101f1565b5b813561032e8482602086016102c7565b91505092915050565b60006020828403121561034d5761034c6101e7565b5b600082013567ffffffffffffffff81111561036b5761036a6101ec565b5b61037784828501610309565b91505092915050565b600081519050919050565b600082825260208201905092915050565b60005b838110156103ba57808201518184015260208101905061039f565b838111156103c9576000848401525b50505050565b60006103da82610380565b6103e4818561038b565b93506103f481856020860161039c565b6103fd816101fb565b840191505092915050565b6000602082019050818103600083015261042281846103cf565b905092915050565b7f4e487b7100000000000000000000000000000000000000000000000000000000600052602260045260246000fd5b6000600282049050600182168061047157607f821691505b602082108114156104855761048461042a565b5b5091905056fea2646970667358221220ea8214b11a5c7922800f9e597e779cb6b8e59e6f5d4bd873868ac1a65e952b5164736f6c634300080b0033",
  "immutableReferences": {},
  "source": "// SPDX-License-Identifier: MIT\r\npragma solidity >=0.4.16 <0.9.0 ;\r\n\r\ncontract HelloWorld {\r\n    string public yourName ;\r\n\r\n    constructor(){\r\n        yourName = \"Unknown\" ;\r\n    }\r\n\r\n    function setName(string memory name) public {\r\n        yourName = name;\r\n    }\r\n\r\n}",
  "sourcePath": "E:\\FlutterMyLocalProjects\\hello_world\\contracts\\HelloWorld.sol",
  "compiler": {
    "name": "solc",
    "version": "0.8.11+commit.d7f03943.Emscripten.clang"
  },
  "schemaVersion": "3.4.4",
  "updatedAt": "2022-02-06T07:55:29.710Z",
  "networkType": "ethereum",
  "devdoc": {
    "kind": "dev",
    "methods": {},
    "version": 1
  },
  "userdoc": {
    "kind": "user",
    "methods": {},
    "version": 1
  }
}